:020000040800F2
:10000000F862002041020008816500089D4C00084C
:10001000655F00084D1200085D81000800000000C7
:100020000000000000000000000000002174000833
:100030005D1E0008000000004170000809750008FE
:100040005B0200085B0200085B0200085B0200081C
:100050005B0200085B0200085B0200085B0200080C
:100060005B0200085B0200085B020008111C00082C
:100070001D1C0008291C0008351C00085B02000834
:10008000411C00085B0200085B0200085B020008DC
:10009000911200085B0200085B0200085B02000886
:1000A0005B0200085B0200085B0200085B020008BC
:1000B000557500085B0200085B0200085B0200083F
:1000C0005B0200085B0200085B0200085B0200089C
:1000D0005B020008057B0008457C0008557E00088F
:1000E0005B0200085B0200085B0200085B0200087C
:1000F0005B0200085B0200085B0200084D1C000860
:100100005B0200085B0200085B0200085B0200085B
:100110009D760008B97600085B0200085B020008C3
:100120005B020008591C0008651C00085B020008FF
:100130005B0200085B0200085B0200085B0200082B
:10014000651300085B0200085B0200085B02000800
:100150005B020008711C00087D1C00083D8000083F
:100160005B0200085B0200085B0200085B020008FB
:100170005B0200085B0200085B0200080000000050
:100180005B0200085B02000800F002F800F049F88A
:100190000AA090E8000C82448344AAF10107DA45E2
:1001A00001D100F03EF8AFF2090EBAE80F0013F0EB
:1001B000010F18BFFB1A43F001031847F0A001001C
:1001C00010A10100103A24BF78C878C1FAD85207AC
:1001D00024BF30C830C144BF04680C6070470000C1
:1001E0000023002400250026103A28BF78C1FBD840
:1001F000520728BF30C148BF0B607047662917F00F
:10020000D280002070471FB517F0BBF800F070FCDB
:1002100004000020002116F0E5F9E0601FBD10B5D4
:1002200010BD00F066FD1146FFF7EDFF0FF054FD25
:1002300000F084FD03B4FFF7F2FF03BC00F0C6FD3D
:100240000948804709480047FEE7FEE7FEE7FEE76A
:10025000FEE7FEE7FEE7FEE7FEE7FEE704480549A6
:10026000054A064B704700003975000889010008EF
:10027000F85C0020F8620020F85E0020F85E0020A4
:1002800053EA020C00F069802DE9F04B4FF00006B4
:10029000002B1FBFB3FA83F503FA05F424FA05F621
:1002A0005E4012BF1643B2FA82F502FA05F4C5F1B8
:1002B00020051EBF22FA05FC44EA0C04203556EA4C
:1002C000044C4FEA144418BF641C4FF000084FF070
:1002D0000009904271EB030C39D3002919BFB1FA20
:1002E00081F701FA07F6B0FA80F700FA07F6C7F1CE
:1002F00020071EBF20FA07FC46EA0C062037B6FB93
:10030000F4FCA7EB0507103F07F01F0BCBF120060D
:100310002CFA06F60CFA0BFB44BFB3460026202F3E
:10032000A4BF5E464FF0000B5BEA060C08BF4FF01F
:10033000010B19EB0B0948EB0608ABFB027C06FB33
:1003400002CC0BFB03CCC01B71EB0C01C1E70B46CD
:10035000024641464846BDE8F08B13B5084318BF36
:100360004FF0FF300146AFF30080BDE81C407047FE
:100370000FB41CB5074B06AA7B446946009005984C
:1003800000F067FB0020694600F076FB1CBC5DF8BE
:1003900014FB0000FD06000070B504468569006886
:1003A000C10601D5302600E02026C00707D070BD69
:1003B000D4E9012130469047206A401C20626D1E1E
:1003C000F6D570BD70B5044685690078C00707D1C1
:1003D00070BDD4E9012120209047206A401C206292
:1003E0006D1EF6D570BD2DE9F0474FF0000A894625
:1003F0000446C0F820A02046E1688847002876D04F
:10040000252806D0D4E901219047206A401C2062AB
:10041000F1E7E168204600258847C4F81CA006469D
:100420000027C4F818A02A2E09D0304616F088F804
:1004300038B304EB8708303EC8F8186019E059F863
:10044000041B204604EB87029161E1688847012F75
:10045000064618D1E069002820DA25F020051DE0C5
:10046000D8F8180000EB800006EB40003038C8F8E0
:1004700018002046E1688847064616F061F8002813
:10048000EED1012F0AD02E2E08D12046E1688847F0
:100490007F1C0646022F45F02005C4DBA06900281A
:1004A00003DA404245F00105A061E80701D025F0DC
:1004B0001005B6B1A6F14100192802D8203645F43E
:1004C00000654A463146204625604D46FFF796FEB8
:1004D00058B1012806D0ED1D25F0070000F10809EC
:1004E00089E704E005F1040985E730468AE7206AD8
:1004F000BDE8F087032A40F2308010F0030C00F0D2
:10050000158011F8013BBCF1020F624498BF11F84D
:1005100001CB00F8013B38BF11F8013BA2F1040206
:1005200098BF00F801CB38BF00F8013B11F003037E
:1005300000F0A782083AC0F0088051F8043B083A5E
:1005400051F804CBA0E80810F5E7121D5CBF51F884
:10055000043B40F8043BAFF30080D20724BF11F8FE
:10056000013B11F801CB48BF11F8012B24BF00F863
:10057000013B00F801CB48BF00F8012B70474FF05A
:1005800000020429C0F0128010F0030C00F01B8060
:10059000CCF1040CBCF1020F18BF00F8012BA8BF6E
:1005A00020F8022BA1EB0C0100F00DB85FEAC17C32
:1005B00024BF00F8012B00F8012B48BF00F8012BE5
:1005C00070474FF0000200B5134694469646203916
:1005D00022BFA0E80C50A0E80C50B1F12001BFF4FC
:1005E000F7AF090728BFA0E80C5048BF0CC05DF862
:1005F00004EB890028BF40F8042B08BF704748BFB0
:1006000020F8022B11F0804F18BF00F8012B704723
:1006100070477047704710B500F06EFA006810BD63
:1006200010B5044600F068FA046010BD2DE9FF4FD4
:100630000C461E464FF0FF378BB0D2E90001DDF8C3
:1006400060800A908A46C1F30A5505B93D460021EB
:1006500008464FF00000BAF1000F00F4400005DA40
:1006600000EB80004FF4400101EA50004FEA90593E
:10067000B9F1010F00DDB9460A9850EA4A000ED0E0
:1006800044F61050A5F2FF3545432F14B8F1000F82
:100690001ED07542291E1EDDC9F100021CE0B8F112
:1006A000010F4FF0000001D0302103E0F24305E0DC
:1006B0002154401CB042FBDB304600220021215473
:1006C0000B99C1F80880C1E900200FB0BDE8F08F98
:1006D000BD1B6D1CDEE74A4600DA694206A800F041
:1006E00095FA06AB93E8070003AB83E80700504692
:1006F0000A9914F042FA8DE80700A0F500501F385F
:1007000000900398002D0ADD42F21F014A4608447A
:10071000002303A90390684614F0ACFC09E0A0F59F
:1007200000504A461F38002303A90390684614F07E
:10073000B6FC8DE807000004000C03D04FF0FF303A
:10074000410800E01046B8F1000F03D000220092EB
:1007500015461EE0751E05D400F0D2F93032625500
:100760006D1EF9D5B3460122084302D000227F1C3A
:1007700004E02078302801D100227F1E002A09974A
:1007800084D01DE0112D07DA00F0BAF9303262553D
:100790006D1C50EA0102F5D1084302D00098C8B19F
:1007A0000EE00021681E05E0235C625C6354225465
:1007B000401E491C8142F7DBAB46A81B401E099036
:1007C000002004F80B000B98099AC0F80880C0E9D3
:1007D000002B7AE711264FF0000857E72DE9F04F7C
:1007E00088460446D21D22F0070191B0D1E90001EC
:1007F000CDE90A0114F08AFD02460B98C00F01D022
:100800002D2007E02068810701D52B2002E0202160
:1008100001EAC000032A099001D0072A05DB03463C
:100820004146204600F0B2F90BE12078800601D560
:10083000E06900E00620B8F1650F814606D0B8F106
:10084000660F18D0B8F1670F70D131E00020B9F110
:10085000110F009001DB112301E009F101030AAA45
:1008600001A90CA8FFF7E2FEDDE90C70002609F1F2
:100870000105834647E001204B4600904FF00047BA
:100880000AAA01A90CA8FFF7D1FEDDE90DB00C9969
:100890005D46002610B909F101000D18B9EB0500FD
:1008A00003D4C0F1FF3609F10105A5EB09002BE0E7
:1008B000B9F1010F01DA4FF001090020B9F1110F70
:1008C0000090484601DD112300E003460AAA01A971
:1008D0000CA8FFF7ABFEDDE90C704D460026834601
:1008E000207800070AD4AB4500DA5D4601A8012D47
:1008F00004DD411911F8011C302907D04F4502DAF7
:1009000017F1040F04DA012082460FE06D1EEEE7B6
:10091000002F02DCED1B3E4403E0781CA84200DD02
:100920007D1CB81B00F1010A4FF00047207800073A
:1009300003D4AA4501DB4FF0FF3A0021B7F1004F85
:100940000DF143088DF8431024D002202B23002FF3
:1009500001DA7F422D230A21021EA0F1010000DCF2
:100960005FB197FBF1FC97FBF1F201FB1C7C174692
:100970000CF1300C08F801CDEEE7A8F1010003708E
:100980002188090501D5452100E06521A0F1010874
:1009900000F8011C09980FA9A1EB0807FF1D00B181
:1009A0000120411901EBEA70A1693844081A401E80
:1009B000A0612078C00602D42046FFF7EDFC09981C
:1009C00028B1D4E901219047206A401C2062207898
:1009D000C00622D52046FFF7DFFC1EE0002E04DB18
:1009E000B34502DD01A8805D00E03020D4E901219B
:1009F0009047206A401C2062761CAAF101005FEA41
:100A0000000A0AD100F074F8C0680168405CD4E9BB
:100A100001219047206A401C2062281EA5F1010593
:100A2000DCDC07E0D4E9012118F8010B9047206ACB
:100A3000401C2062381EA7F10107F3DC2046FFF7B7
:100A4000C1FC032011B041E601694A1C026108782B
:100A5000704700B58FB0CDE90131002105910549FE
:100A60007944CDE9031011466846FFF7BCFC0FB08E
:100A700000BD0000E5FFFFFF0A6802F8010B0A60F5
:100A8000704710B5203AC0F00B80B1E81850A0E8CC
:100A90001850B1E81850A0E81850203ABFF4F5AF4C
:100AA0005FEA027C24BFB1E81850A0E8185044BFA8
:100AB00018C918C0BDE810405FEA827C24BF51F815
:100AC000043B40F8043B08BF7047D20728BF31F809
:100AD000023B48BF11F8012B28BF20F8023B48BF5A
:100AE00000F8012B7047000000487047E800002024
:100AF000004870470801002000487047E8000020C7
:100B000030B5B0F10A0271F100034FEA900E4EEADF
:100B1000817EB0EB0E0061EB91014FEA101E4EEAB0
:100B2000017E10EB0E0041EB11114FEA102E4EEA40
:100B3000016E10EB0E0041EB11214FEA104E4EEA10
:100B4000014E10EB0E0041EB1141401841F1000144
:100B50004FEAD00040EA41704FEAD1014FEA8104E8
:100B600044EA907410EB800544EB01046D1944EBEA
:100B70000404521BA3414FF0000348BF0A3200D5C2
:100B800030BD401C41F1000130BD00002DE9F041B5
:100B90001F46044603260168072A01F4006004DBAF
:100BA00008B116A505E016A503E008B115A500E0FB
:100BB00015A521F010002060A069C01EA0610FB132
:100BC000401EA0612046FFF7E7FB4FB1D4E90121A9
:100BD00038469047206A401C2062C01C206206E014
:100BE000206AFAE7D4E9012115F8010B9047761E37
:100BF000F8D22046FFF7E6FBBDE8F0814E414E00FB
:100C00006E616E00494E4600696E66002DE9F04740
:100C1000814616468AB0354878440DC88DE80D00E7
:100C200032487844801C03AC0DC884E80D0041F6BE
:100C30009B300844372190FBF1F290FBF1F5A5F1D0
:100C4000800501FB12041B3C02D56442012000E038
:100C50000020DFF898A080460027FA44AAF1BE0AD7
:100C60000EE0E0070AD03246684607EB4701012351
:100C70000AEB810114F013FA8DE8070064107F1C61
:100C8000002CEED1194F7F44AE3F19E0E80715D094
:100C900007EB04100DF1180A90E80E008AE80E0028
:100CA000C068F04201D1981908903246012306A984
:100CB00003A814F0F4F903AB83E807006D10641C7B
:100CC000002DE3D14FF0010332466946B8F1000F21
:100CD00003A802D014F0CEF901E014F0E0F9C9E95C
:100CE0000001C9F808200AB0BDE8F087286A0100B1
:100CF00070477546FFF7F8FEAE4605006946534655
:100D000020F00700854618B020B5FFF7A7FABDE828
:100D100020404FF000064FF000074FF000084FF062
:100D2000000BAC46ACE8C009ACE8C009ACE8C009AF
:100D3000ACE8C00921F007018D46704710B50446A4
:100D4000AFF300802046BDE81040FFF773BA000003
:100D500030B44FF0013C50F8042B51F8043BCCFA6E
:100D600052F4D51A20D1FCB950F8042B51F8043BA9
:100D7000CCFA52F4D51A17D1B4B950F8042B51F863
:100D8000043BCCFA52F4D51A0ED16CB950F8042BAE
:100D900051F8043BCCFA52F4D51A05D1002CDAD024
:100DA00030BC4FF00000704729BAB1FA81F111F060
:100DB0001801D1F120008440F2D1CA40CB4012F09A
:100DC000FF0213F0FF0330BCD01A7047014918200E
:100DD000ABBEFEE726000200002872D0032938BF10
:100DE0007047F0B540F23402C2F20002A1F1020CE9
:100DF00012884AF2AC0ECC1E1CF00303C0F6010EA2
:100E000010D0054615F8016B012B86EA0206F6B2F2
:100E10003EF8167087EA12220AD13E0A2346032CB6
:100E200022D247E0002663460546032C1CD241E04F
:100E30004578D2B26A403EF81260022B86EA172249
:100E400006D10B1F851C360A032C0DD232E000BFE1
:100E50008578D2B26A403EF812704B1FC51C87EAF3
:100E600016223E0A032C25D32C1F00BF14F8045F62
:100E7000043B85EA0205EDB23EF81550667885EA36
:100E8000122282EA0602D2B23EF81220A67882EA44
:100E9000152585EA0605EDB23EF81560E57886EA87
:100EA000122282EA0502D2B23EF8125085EA1622D8
:100EB000DCD12E0A00F80C20084400F8016CBDE8D3
:100EC000F0407047002846D0032938BF7047F0B57E
:100ED000A1F1010E0239032947F2E4610EF0030C7F
:100EE000C0F6010102D2FF2203461CE04FF6FC725D
:100EF0000EEA02040025FF22034600BF13F8046B2C
:100F0000D2B2724013F8037C8A5C13F8026C7A4008
:100F10008A5C13F8017C72408A5C04357A408A5CF2
:100F2000AEB2A642EAD1BCF1000F10D01C78BCF1E1
:100F3000010F82EA04028A5C09D05C78BCF1020FDE
:100F400082EA04028A5C02D09B785A408A5C00F8EC
:100F50000E20BDE8F040704710B540F67454C2F260
:100F60000004207800F028F940F20800C2F20000E6
:100F7000037841782278012B08D11144CAB2092A9A
:100F800021700BD9FF210A2206E000BF511A2170FF
:100F900018BF10BD012100222270017010BD000099
:100FA000B0B58EB040F6C024C2F20004204609F06D
:100FB000F9FF08F0C7F8204608F084F8044608F066
:100FC000C1F81CB120460EB0B0BD00BF40F6C02431
:100FD000C2F2000401250DF10300012122468DF823
:100FE00003500AF0A1F808F0ADF801A8012122464B
:100FF0008DF8045008F0DCF908F0A4F80420022170
:10100000224609F0F3FF044608F09CF88CB94FF42F
:101010000370ADF806004FF4807040F6C022ADF8C2
:101020000A00C2F2000201A801218DF808500AF05E
:101030008BFE40F6C024C2F2000400250DF103002F
:10104000012122468DF803500AF06EF808F07AF874
:1010500001A8012122468DF8045008F0A9F908F0F2
:1010600071F804200121224609F0C0FF044608F06F
:1010700069F86CB940F20C20C0F2010040F6C022C1
:10108000CDF80600C2F2000201A801210AF05CFEC0
:10109000022040F6C0228DF80300C2F200020DF1DA
:1010A000030001210AF040F8044608F04BF82046FE
:1010B0000EB0B0BDF0B581B02DED028B84B001A9AA
:1010C0000C200C2204F0BCF9BDF8040040F6BA264E
:1010D000C2F20006BDF80610308040F6BC20C2F215
:1010E0000000BDF80820BDF80C40018040F6BE208D
:1010F00040F67C56C2F20000C2F20006BDF80A308B
:10110000028040F67A50348040F62A34BDF80E5002
:10111000C2F2000040F67E57C2F200040380C2F221
:101120000007A01C2146002200233D800FF0BCF9DF
:10113000B7F90000B6EE008A00EE100AB4F9040018
:10114000B8EEC00A01EE100AF8EEC10AB0EE481A75
:1011500003F07AFFBDEEC00A10EE100AB6F90010D7
:10116000A080B4F9060000EE101A01EE100AB8EEE5
:10117000C00AF8EEC10AB0EE481A03F065FF40F667
:101180007850BDEEC00AC2F20000018810EE102AAD
:10119000E280B1F57A7F04BF22882281013101808B
:1011A00004B0BDEC028B01B0F0BD000044F6340188
:1011B000C4F2010108607047B0B540F6004504462E
:1011C000C4F20205A0B128461021012201F0BCFEA4
:1011D00028462021012201F0B7FE284608210022DE
:1011E00001F0B2FE20460FF02DFC632C88BFB0BD8D
:1011F00028461021012201F0A7FE284620210122C5
:1012000001F0A2FE28460821012201F09DFEC4F152
:101210000A00BDE8B0400FF015BC000040F21024F9
:1012200041F2B815C2F20004C2F20005FFF742FF16
:1012300003F044FF204605F095FF0EF049FB2846D9
:1012400001F08EFE01200FF0FDFBEFE7FEE700004E
:1012500010B58AB040F6845400200121C2F2000487
:101260000690CDE90400CDE90200CDE90000CDE90A
:10127000071109906946204600F08EFF20460221A2
:1012800000F012FF204601F0FFFA0AB010BD000086
:1012900040F68450C2F2000001F080B8A0F20122B2
:1012A000032A0FD80FF20400DFE802F002321A24FA
:1012B00041F27C50C2F20000416800220A7004F042
:1012C0000BBF00BF30281FD040F24111884218BF29
:1012D000704740F24020C2F200005C3005F098B840
:1012E00041F25C50C2F20000416800220A7004F032
:1012F000F3BE00BF41F29C50C2F2000041680022E0
:101300000A7004F0E9BE00BF08460DF063BC00BFE0
:1013100041F2BC50C2F20000416800220A7004F0A1
:10132000DBBE000010B58AB040F6AC5400200121AD
:10133000C2F200040690CDE90400CDE90200CDE937
:101340000000CDE9071109906946204600F024FF0E
:101350002046022100F0A8FE204601F095FA0AB0CE
:1013600010BD000040F6AC50C2F2000001F016B80B
:1013700010B5B0F5007F0A460CDD40F2012188422D
:1013800016D040F2022188422ED040F2FF2188423E
:1013900006D010BD30284DD040F2FF118842F8D160
:1013A00040F6DA01C2F20001BDE8104000F014BEC0
:1013B00040F2E034C2F2000460680021017020466F
:1013C00004F0D2FD40F20450C2F2000090F82A006E
:1013D000032801D00028DCD12068B0F90A10C268C7
:1013E0001144C16010BD00BF40F2F834C2F20004E5
:1013F000606800210170204604F0B6FD40F23050D4
:10140000C2F2000090F82A00032800D028B9206812
:10141000B0F90A10C2681144C16041F2E354C2F24B
:1014200000042078002818BF10BD04F0D9FF012067
:10143000207010BD1046BDE810400DF0CBBB000081
:1014400010B582B0D0F800C046F20043C4F20003E9
:1014500040F2402E9C45C2F2000E07D046F6000333
:10146000C4F200039C452FD10EF1200E5378F446B0
:101470000CF8183F137800248EF81930D378CEF882
:1014800008408EF81A309378CEF80C408EF81B3056
:10149000537908248EF81C301379CEF800108EF89A
:1014A0001D30D37971468EF81E30927901AB8EF8DB
:1014B0001F206246CEF8104000F00EFE002818BF34
:1014C000012002B010BD00BF012002B010BD00001D
:1014D00080B582B08C46D0F800E046F20041C4F2FC
:1014E00000018E4540F24021C2F2000106D046F6CE
:1014F0000003C4F200039E4524D12031C1F800C08E
:1015000000234FF0080CC1E90233C1F810C0137872
:101510008C460CF8183F53784B7693788B76D378BB
:10152000CB7613790B7753794B7793798B77D27985
:1015300001ABCA77624600F0CFFD002818BF01203A
:1015400002B080BD012002B080BD00000DF0A4FCFF
:1015500001200FF077FAF9E701289EBF40F2380129
:10156000C2F2000181F834007047000040F23801F7
:10157000C2F2000181F83000704700002DE9F0430D
:1015800081B02DED068B41F27C58C2F2000841F289
:10159000685141F276520446C2F20001C2F20002E2
:1015A000404604F0CDFD41F2BC59C2F2000941F2BF
:1015B000A85141F2B652C2F20001C2F200024846FE
:1015C00004F0BEFD41F25C57C2F2000741F24851FF
:1015D00041F25652C2F20001C2F20002384604F053
:1015E000AFFD41F29C55C2F2000541F2885141F233
:1015F0009652C2F20001C2F20002284604F0A0FD99
:1016000040F6C4369FED389A9FED38AAC2F2000624
:10161000B2EE088A3046032142F210724FF4FA53B8
:10162000B0EE480AF0EE490AB0EE4A1A05F0E4FCC2
:1016300006F16C00032142F210724FF4FA53B0EE3F
:10164000480AF0EE490AB0EE4A1A05F0D5FC06F158
:10165000D800032142F210724FF4FA53B0EE480A58
:10166000F0EE490AB0EE4A1A05F0C6FC06F5A27083
:10167000032142F210724FF4FA53B0EE480AF0EE32
:10168000490AB0EE4A1A05F0B7FC40F658309FED13
:10169000180AC2F2000003214FF4FA520023F0EEC0
:1016A0004A0AB0EE4A1A002605F0A6FC40F22400D1
:1016B000C2F200004068C4E900890430E06342F2ED
:1016C0002830C3F2C820C4F83600322084F8300035
:1016D00042F22830A760E56084F834606086BDEC93
:1016E000068B01B0BDE8F0833333B33E0000000049
:1016F000CDCC4C3EB0B541F27C51C2F2000109683C
:101700000446B1F90210B0F9200040F6C43500EEED
:10171000101A01EE100AC2F20005B8EEC00AF8EE87
:10172000C10A28460FF0CAF941F2BC50C2F20000CB
:101730000068BDEEC00AB0F9020010EE101A00EE0B
:10174000100AB4F92200B8EEC00A01EE100AF8EE51
:10175000C10A05F16C0021850FF0B0F941F25C502F
:10176000C2F200000068BDEEC00AB0F9020010EE3F
:10177000101A00EE100AB4F92400B8EEC00A01EE07
:10178000100AF8EEC10A05F1D80061850FF096F94C
:1017900041F29C50C2F200000068BDEEC00AB0F9F0
:1017A000020010EE101A00EE100AB4F92600B8EE8E
:1017B000C00A01EE100AF8EEC10A05F5A270A18573
:1017C0000FF07CF9BDEEC00A10EE100AE085B0BD46
:1017D0002DE9F04140F22401C2F2000189688978C4
:1017E000012940F0858040F23802C2F2000242F244
:1017F0002831D26B4186B2F900709FED411A39460B
:101800003C2FA8BF3C2100EE101AB8EEC00A80EEB3
:10181000010AB0F82AE0B0F828C00FFA8EF51929AD
:101820000FFA8CF6838DB7EE001A8EEAE532C18D81
:10183000B8BFB0EE401A3C2F8CEAE637A2EBE53297
:101840001CB2A7EBE63792B212FA87F283EAE437CA
:101850000FFA81F8A7EBE43720EE011A9FED290A71
:1018600012FA87F281EAE837A7EBE83721EE001A8F
:1018700012FA87F2B8BFB0EE410A01EE102AB8EEB4
:10188000C11AB4EE410AF1EE10FA29DC80EE010A29
:1018900001EE106AB8EEC11A20EE011ABDEEC11AAF
:1018A00011EE10CA01EE105AB8EEC11A20EE011A5C
:1018B000BDEEC11A11EE10EA01EE104AB8EEC11ADF
:1018C00020EE011ABDEEC11A11EE103A01EE108A97
:1018D000B8EEC11A20EE010ABDEEC00A10EE101AD1
:1018E000A0F828C0A0F82AE08385C185BDE8F08172
:1018F0004FF4FA6141864FF47A61C186BDE8F08108
:101900000000704200A00C472DE9F04F81B0044662
:101910005018C718181AA084881A2784571A184410
:101920001F44E08494E80F00096800686784B0F9F8
:101930000270B1F9029010681968B0F902B0B1F9FB
:1019400002A000974F440AEB0B0808EB070015F0C4
:1019500016F99FED130B55EC106B32462B4615F024
:10196000B1F915F0DDF86083A7EB080015F007F971
:1019700032462B4615F0A6F915F0D2F800992083CF
:1019800009EB0B00081A504415F0F9F832462B46C3
:1019900015F098F915F0C4F8E08201B0BDE8F08FB9
:1019A000000000000000D03F10B52DED048B044670
:1019B000C06915F04BFC41EC180BB0EE480AF0EE94
:1019C000680A14F03DF951EC100B14F02DFEB0EE46
:1019D000480AF0EE680A09EE100A14F0CDF851EC4E
:1019E000100B14F021FE00EE100AB4F91000B4F947
:1019F000121001EE100A02EE101AB8EEC11AB8EE7B
:101A0000C22A29EE023A20EE014A34EE433A20EE91
:101A1000020A29EE011ABDEEC33A31EE000A13EEB6
:101A2000100ABDEEC00A208210EE100A6082BDECE2
:101A3000048B10BDF0B583B00446058A468A878AB8
:101A4000806804F071FBE06804F06EFB206804F02D
:101A50006BFB606804F068FBA0684068807878B130
:101A6000E0684068807858B120684068807838B174
:101A7000606840688078002818BF012001E000BF3E
:101A8000002084F83A0029B232B23BB22046FFF778
:101A90003BFFB4F91020B4F9121013B282EAE33715
:101AA000A7EBE3330FB2B4F9140081EAE736A6EBF3
:101AB000E7373B4407B280EAE736A6EBE7373B441B
:101AC000278F1BB200EE107A01EE103AB8EE400AF2
:101AD000B8EEC11ABB4240F2380380EE010AC2F2EE
:101AE00000034FF47A67B7EE001A5F86C8BFB0EE06
:101AF000401A00EE102AB8EEC00A21EE000ABDEE30
:101B0000C00A10EE102A00EE101AB8EEC00A21EE3C
:101B1000000ABDEEC00A10EE101A00EE100AB8EE70
:101B2000C00A21EE000ABDEEC00A10EE100AA08223
:101B3000204622826182FFF7DDFD2046FFF748FE46
:101B400040F21020C2F2000040688078012805D1E0
:101B5000D4E90A01CDE9000103E000BF0020CDE98E
:101B6000000040F68450C2F200006A464FF4007153
:101B7000FFF766FC03B0F0BD01289EBF40F23801BC
:101B8000C2F2000181F835007047000012F070FCCD
:101B900001200EF057FFF9E710B506F0C1FB04F085
:101BA000F1FC05F05DFB40F21024C2F2000441F6A6
:101BB000780204F10801C2F2000220460FF02EFE66
:101BC00004F03AFB40F23800C2F20000FFF7D6FC06
:101BD00040F6DA00C2F2000004F0B6F940F2D45048
:101BE00004F11C01C2F2000000F0D2F940F2004002
:101BF000C4F202004FF48041002201F0A5F904F084
:101C0000A3FC04F0C3FE0020BDE81040FFF7CEBAED
:101C100040F65860C2F2000000F0CCBE41F238003D
:101C2000C2F2000000F0C6BE40F6F850C2F200005A
:101C300000F0C0BE41F29800C2F2000000F0BABE4F
:101C400040F6D870C2F2000000F0B4BE40F6B860B2
:101C5000C2F2000000F0AEBE41F2F800C2F2000095
:101C600000F0A8BE40F61870C2F2000000F0A2BE5C
:101C700041F25810C2F2000000F09CBE40F67870AD
:101C8000C2F2000000F096BE10B50446408B41F24F
:101C90007B4281085143490C642201FB12012268F6
:101CA00001306083106889B2B0F90220E06800EE6C
:101CB000102A0DA2312988BF0432D2ED000AB8EEF5
:101CC000C00A0EF0FBFE618BBDEEC00A226810EE6A
:101CD000100A6429108118BF10BDA08B0130A083A9
:101CE0000020A061207510BD00409CC500409C45AF
:101CF00080B505F091F905F013FF05F0B1FF06F08E
:101D0000B7F806F04FF906F0A7F9FFF7A1FABDE81A
:101D10008040FFF707BB0000B0B582B001680A68D9
:101D2000D20644BFCA685FEAC26201D402B0B0BD45
:101D3000002201920A6841F2283401924968C2F2F5
:101D4000000401910199A0422CD041F2B035C2F2B9
:101D50000005A8423CD041F2F435C2F20005A84289
:101D600044D041F2E425C2F20005A8424ED041F22F
:101D70006C35C2F20005A84256D041F23845C2F295
:101D80000005A842D2D1A86B45F680140068C2F2C3
:101D90000004016821F001010160204606F0A4F969
:101DA00031E000BFA06B01680A6822F001020A60FE
:101DB0004A68062A09D1096809034FF0440158BF4F
:101DC0003C2141588847A06B0168182048603FE0DB
:101DD000A86B45F2F0740068C2F20004016821F0BB
:101DE00001010160204606F025F90CE0A86B45F6DC
:101DF000B8040068C2F20004016821F0010101602A
:101E0000204606F019F92046C8211DE0A86B45F2CE
:101E100000540068C2F20004016821F00101016071
:101E2000204605F0C5FE0CE0A86B45F29064006802
:101E3000C2F20004016821F001010160204606F0B1
:101E40005FF820464FF4AF71FEF7BBFBA86B01684B
:101E5000086840F00100086002B0B0BD70470000A3
:101E600090F82A10032938D8DFE801F0180232026E
:101E70000168B0F922200968B1F90210891A48BF37
:101E80004942B1F5FA7F1FD3018B4A1CB1F5C87FD7
:101E9000028338BF704701210175704701680968E6
:101EA000CA684969891A40F2DC5248BF49429142E6
:101EB0000AD3018B4A1CB1F5C87F02833EBF0021C3
:101EC00081837047E7E700BF0021018301757047F8
:101ED000006800210068C1604161704770470000E0
:101EE0000DF0F2FB01200EF0ADFDF9E7016FB1F549
:101EF000803F05DB0022CFF6FF7211440167704777
:101F00000029C8BF70474FF4803211440167704701
:101F100010B5044604F080F994F88600012813D126
:101F200040F21020C2F200004068807801280BD1F6
:101F300040F22C21C2F20001206F09688860BDE8E0
:101F4000104004F00DB900BFBDE8104004F0E6B940
:101F500010B5044604F060F994F88600012813D106
:101F600040F21020C2F200004068807801280BD1B6
:101F700040F22C21C2F20001206F09688860BDE8A0
:101F8000104004F0E3B900BFBDE8104004F0C6B94A
:101F900070B5044601600020254648F2A16645F868
:101FA000700FC0F2010684F88600C4E91D0084F8B1
:101FB0007C00C4F87E0084F8820000BF20680068BE
:101FC000817C29B104F0AAF9013EF7D120680068AC
:101FD000C08A286070BD0000B0F5007F1CDAF128CF
:101FE00036D040F2FF1398425CD1907803028B8385
:101FF000D37843EA0020888310790302CB83537996
:1020000043EA0020C88390798876D079C87600208A
:1020100081F82500704700BF3CD040F2FF23984272
:1020200018BF704710780302CB82537843EA002030
:10203000C882907803020B83D37843EA0020088398
:1020400090790875D0794875002081F82000704794
:10205000107803020B80537843EA002008809078C0
:1020600003024B80D37843EA0020488010790302B2
:102070004B81537943EA00204881907903028B8198
:10208000D27942EA00208881002081F8200081F87E
:1020900025007047107908725079887490794872D9
:1020A000D079C8747047000090F82020013A012AC6
:1020B00008D8006800F11402002013681943116069
:1020C000704700BF00F1240201204FF48021136803
:1020D000194311607047000010B590F820E0D0F867
:1020E00000C0AEF1010EBEF1010FDCF808E011D81E
:1020F0001EF0E05F18D0CEF3016EBEF1030F1DD1CC
:1021000000F1240101204FF400020B681A430A6019
:1021100010BD00BF00F1240101204FF480220B68A4
:102120001A430A6010BD00BF00F1240101204FF4E2
:1021300000120B681A430A6010BD00BF012000FAAC
:102140000EF01860886828B14B68CC6844EAC30375
:10215000034303E00868CB6843EA40530CEB0E10DE
:10216000C0F880310B69C0F88431097D012905D19F
:1021700000F5C2710B6843F480730B605168C0F8BE
:102180008C11126800F5C071C0F88821002001226E
:102190000B681A430A6010BDB0B590F82020013AD0
:1021A000012A2FD846F20060C4F20000026842F013
:1021B00001020260026822F47C520260D1F814E04D
:1021C000CC694A6A0368012C43EA022202600EF0DD
:1021D0001F024FF0010303FA02F2C3696FEA020C17
:1021E00023EA0203C36113D02CBBC36803EA0C03C8
:1021F000C360CB688C8844EA034300EBCE042364BD
:102200000B4611E0416A41F4802141620120B0BDDA
:10221000C3681343C3600B688C8844EA034300EB34
:10222000CE04236401F10C038C681B8843EA044349
:1022300000EBCE04636443688D6943EA0204D1F87D
:1022400010E0096A002D08BF03EA0C0444604369EA
:10225000BEF1000F43EA020408BF03EA0C0401299F
:10226000446102D1C1691143C161016821F00101DA
:1022700001600020B0BD00007047000010B590F86C
:102280002040013C012C71D8D0F800C0002977D043
:10229000DCF81040A40777D00CEB011CDCF8B0414F
:1022A0000CF5D87E14F004049460DCF8B04119BF3A
:1022B000E4085460640D1460DEF80040002904F066
:1022C0000204D460DCF8B44104F00F041461DCF8BB
:1022D000B441C4F307249461DCF8B4414FEA1444D8
:1022E0005461DCF8B8211A70026802EB0112D2F8CE
:1022F000B8214FEA12225A70026802EB0112D2F89A
:10230000B8214FEA12429A70026802EB0112D2F829
:10231000B8214FEA1262DA70026802EB0112D2F8B9
:10232000BC211A71026802EB0112D2F8BC214FEAFB
:1023300012225A71026802EB0112D2F8BC214FEA54
:1023400012429A71026802EB0112D2F8BC214FEAE4
:102350001262DA71006814BF00F1100100F10C0183
:10236000002020220B681A430A6010BD00F12401EE
:1023700001204FF480220B681A430A6010BD00BF91
:10238000DCF80C40A40787D100F1240101204FF4B0
:1023900000120B681A430A6010BD00002DE9F04FCF
:1023A00081B0044600684669D0F804908768D0F888
:1023B0000CB0D0F810A0D0F81880F10704D1002597
:1023C00030071DD424E000BFF90710D00121BA075F
:1023D000816009D4780700F1AF80380700F1B6803A
:1023E000204600F07FFA02E0204600F07DFA00254A
:1023F000F80500F18780F80300F1B180300707D5B8
:102400001BF0100004D0206845F400751021C16055
:10241000700708D51BF0080005D020680821C160AE
:10242000204600F0F5F9B00706D52068C06880079F
:1024300002D0204600F0EEF9700607D51AF0100021
:1024400004D0206845F4806510210161B00608D5EC
:102450001AF0080005D0206808210161204600F02C
:102460000DFAF00606D520680069800702D02046E4
:1024700000F006FAB00308D519F0100005D0206866
:1024800010214160204600F0FDF9F00308D519F055
:10249000080005D0206808214160204600F02EFA8F
:1024A000300440F19B805FEA497040F1948006F46B
:1024B000807008EA102028435FEA8871014648BF0F
:1024C00041F00201B20558BF01465FEA48700D466F
:1024D00048BF45F00405700558BF0D46300540F172
:1024E0007A8018F0700000F0768010380009052816
:1024F0006CD8DFE800F003595D61656945F00805B7
:1025000064E000BF20684FF48071BA0581600BD48D
:10251000780515D438051DD4204600F0E7F9F803F6
:102520007FF56CAF1BE000BF204600F0E1F9F80337
:102530007FF564AF13E000BF4FF4006558E700BFBC
:1025400005F50055F8037FF559AF08E04FF48055C5
:102550004EE700BF05F58045F8037FF54FAF2068D3
:102560004FF48031BA0381600AD4780310D4380361
:1025700014D4204600F0BEF930073FF541AF47E7DD
:10258000204600F0B9F930073FF53AAF40E700BF09
:1025900005F5004530073FF533AF39E705F58035E0
:1025A00030073FF52DAF33E745F010050EE000BFD3
:1025B00045F020050AE000BF45F0400506E000BFF9
:1025C00045F0800502E000BF45F480752068816910
:1025D00021F07001816120680421416055B1606A79
:1025E00040EA05012046616201B0BDE8F04FFFF707
:1025F00043BE00BF01B0BDE8F08F0000B0B5C8B168
:10260000044690F8200010B9204600F071F82068C8
:10261000016841F00101016000F09CFC054600BF2B
:1026200020684168C90707D100F094FC401B0B28C3
:10263000F6D312E00120B0BD016821F00201016073
:1026400000F088FC054600BF2068416889070DD569
:1026500000F080FC401B0B28F6D3606A052140F493
:1026600000306062012084F82010B0BD217E026835
:10267000012922F0800208BF80320260617E026878
:10268000012922F0400208BF40320260A17E0268A8
:10269000012922F0200208BF20320260E17E026898
:1026A000012922F0100218BF10320260217F026857
:1026B000012922F0080208BF08320260617F026827
:1026C000012922F0040208BF04320260D4E901C2E9
:1026D000D4E9033561691A432A431143ACF101027D
:1026E0001143C16100200121606284F82010B0BD57
:1026F00010B586B0006846F60002C4F20002002160
:102700009042CDE90411CDE90211019134D046F295
:102710000041C4F20001884277D140F25C61C2F20C
:1027200000010A6843F64000C4F20200531C0B602B
:1027300052B900210091016841F000710160016807
:1027400001F00071009100990021009150F8101CD7
:10275000142441F0080140F8101C50F8100C03211B
:1027600000F008000090009840F20040C4F202001F
:1027700000F5006035E000BF43F64000C4F20200FF
:102780000091016841F080610160016801F08061A1
:102790000091009940F25C61C2F200010A68531C8A
:1027A0000B6052B900210091016841F00071016095
:1027B000016801F00071009100990021009150F82A
:1027C000101C402441F0020140F8101C50F8100C7D
:1027D000602100F002000090009840F20040C4F236
:1027E0000200019102210291002103910321049131
:1027F0000921059101A900F0D3FA20460521002204
:1028000000F070FC204600F059FC06B010BD00003E
:1028100070470000B0B5016846F60002C4F200023D
:10282000914219D046F20042C4F20002914218BF10
:10283000B0BD40F24025C2F2000505F15C0405F18F
:10284000400200212346FFF719FD286C2146BDE810
:10285000B040FEF723BD00BF40F6D454C2F20004DE
:1028600004F11C05002122462B46FFF707FD2068D6
:102870002946BDE8B040FEF77BBD00007047000070
:102880007047000070470000B0B5044690F8200083
:1028900001281DD1022084F820002068016821F061
:1028A0000101016000F056FB054600BF206840684A
:1028B000C00713D000F04EFB401B0B28F6D3606A14
:1028C00040F400306062052084F820000120B0BD93
:1028D000606A40F4002060620120B0BD00206062A8
:1028E000B0BD000070470000704700007047000056
:1028F00070470000704700007047000070470000FC
:1029000070B5866D044600F025FB94F83510022959
:1029100028D105462068216C026822F01602026068
:10292000426922F08002426109B9A16C19B10168C3
:1029300021F008010160016821F00101016000BF80
:1029400020680068C00715D000F004FB401B062873
:10295000F6D320206065032084F83500002184F838
:10296000341070BD802060650120002184F834108F
:1029700070BD00BFE06D3F2101FA00F0B0600120A2
:1029800084F835000020002184F8341070BD000068
:1029900090F83510022909D1052180F8351000681A
:1029A000016821F00101016000207047802141652C
:1029B00001207047F0B581B004460020009040F23D
:1029C0009000C2F200000268D4E9166048F2B51324
:1029D00037680821C1F64E3381403942A2FB0325F6
:1029E0000CD0226813685B0708D5136823F0040332
:1029F0001360B160616D41F00101616501218140A9
:102A0000394208D022685269120604D5B160616D5E
:102A100041F00201616504218140394208D02268F9
:102A20001268920704D5B160616D41F004016165DF
:102A300010218140394217D020680268120713D54F
:102A4000B16002680168520308D4C90508D401685E
:102A500021F008010160216C21B905E008033FD491
:102A6000216C09B120468847E16D202000FA01F26F
:102A70003A4241D020680368DB063DD5B26094F845
:102A800035300268052B1BD122F016020260426924
:102A900022F080024261226C0AB9A26C1AB102686B
:102AA00022F0080202603F208840B060012084F8D4
:102AB0003500216D0020002984F8340052D157E000
:102AC0000168520310D4C90512D4016821F0100125
:102AD0000160012084F83500002084F8340007E00C
:102AE000A16C0029BED1BFE7080301D4616C00E0EE
:102AF000E16B09B120468847606DC8B3606DC007BF
:102B00002ED0052084F835002068A90A026822F03A
:102B100001020260009A01328A4200921AD80268C9
:102B2000D20717D0009A01328A42009212D8026866
:102B3000D2070FD0009A01328A4200920AD8026866
:102B4000D20707D0009A01328A42009202D8026866
:102B5000D207DFD1012084F83500002084F834004A
:102B6000E16C29B1204601B0BDE8F040084700BF44
:102B700001B0F0BD2DE9F041044600F0EBF9ECB1F5
:102B80000546022084F835000020216884F83400CE
:102B9000086820F00100086021680868C00711D0AB
:102BA00000F0D8F9401B0528F6D90325202303207F
:102BB000636584F83550BDE8F08100BF0120BDE8B1
:102BC000F08100BF086848F23F02CFF21002D4E95A
:102BD000013500EA020C04F10C0898E8C10143EA4F
:102BE0000C032B431843D4E9072E304338431043DA
:102BF000626A40EA0E00042A40EA08031CD1206BF6
:102C0000D4E90A2E40EA0E00184308604869BEF174
:102C1000000F20F0030040EA020040F0040C11D045
:102C2000B8F5005F36D0B8F1000F45D1022A46D082
:102C3000012A3BD032B942E00B60486920F007001E
:102C400040EA020C01F0F8004AF6AB221038CAF64E
:102C5000AA22A0FB02231A094AF24103C0F601038B
:102C60009A5C40F2FF335F284FF03F00C1F814C078
:102C700021EA030100FA02F088BF0431C4E9161208
:102C80008860002301250020636584F83550BDE885
:102C9000F08100BF032AD5D8012540230120DFE8B9
:102CA00002F0030E030500BF82E700BFAEF1C07063
:102CB000B0FA80F0400904E0032A04D3C2D1CEF375
:102CC00000600028BED0012540230120636584F800
:102CD0003550BDE8F081000070B590F834C0BCF10B
:102CE000010F46D04FF0010C80F834C0D0F858E006
:102CF00090F835C0BCF1010F38D14FF0020C80F8CC
:102D000035C04FF0000CC0F854C0D0F800C0846843
:102D1000056CC06DDCF80060402C26F48026CCF8F1
:102D20000060CCF804300B4604BF13460A463F212E
:102D300001FA00F0CCF80830CCF80C20CEF80800EE
:102D4000DCF8000040F01600CCF800002DB1DCF8F3
:102D5000000040F00800CCF80000DCF8000040F073
:102D60000100CCF80000002070BD00BF002180F8F9
:102D70003410022070BD0000B0B5044600F0EAF83F
:102D8000054640F20000C2F200000078611C18BF46
:102D9000044400BF00F0DEF8401BA042FAD3B0BDEF
:102DA0002DE9F04F82B000F13E4241F6004502F1BC
:102DB000FF77C4F20205082243F6004E4FEAB72619
:102DC000A84208BF0722C4F2010E072E38BF4FEAFF
:102DD000B7220125002600274FF00008009208E0E6
:102DE00008F101080437B8F1100F06F1020600F0EF
:102DF000A7800C6805FA08F914EA090FF0D0D1F899
:102E000004B003220BF0030CACF10104B240012C1E
:102E10006FEA020A10D88268CC6802EA0A02B4405B
:102E2000224382604268CBF3001422EA090204FACA
:102E300008F42243426005E0BCF1030F02D14FF0D9
:102E4000030C20E0C2688C6802EA0A02B440224304
:102E5000BCF1020FC26016D16FF0030202EA580201
:102E60000244D2F820C007F01C050F230C69AB40C8
:102E70002CEA030304FA05F52B431362D1F804B0DE
:102E800001250BF0030C02680CFA06F302EA0A02B1
:102E90001A431BF4403F0260A2D0002243F64403D1
:102EA0000192C4F202031A684FF6084C42F48042C1
:102EB0001A601A68CFF6FF7C02F480420192019AF0
:102EC00028F00302724452F80C3007F00C050F246E
:102ED000AC40A343009C04FA05F52B4342F80C30A8
:102EE000DEF808204B6842EA090543F60C4CDC0288
:102EF00058BF22EA0905CEF80850C4F2010CDCF8EC
:102F000000209C0242EA090558BF22EA0905CCF8D4
:102F10000050DEF804209C0342EA090558BF22EA6B
:102F20000905CEF80450DEF80020DB0342EA09056B
:102F300058BF22EA0905CEF80050012550E700BF2E
:102F400002B0BDE8F08F0000002A08BF09048161CB
:102F50007047000045F64820C2F200000068704744
:102F600001684AF6AA2200200A60704740F2000079
:102F700045F64821C2F20000C2F2000100780A685A
:102F8000104408607047000080B543F60040C4F26A
:102F90000200016841F400710160016841F4806140
:102FA0000160016841F480710160032000F0C6F8FF
:102FB000002000F005F800F05FF8002080BD000060
:102FC00070B586B0002543F640010195C4F20201B8
:102FD0000A68044642F001020A60096801A801F08B
:102FE000010101910199694600F068F9049E002EE3
:102FF00018BF012600F082F94DF68361B040C4F29B
:103000001B31A0FB01014FF0FF3000EB914141F279
:103010005420C2F200004FF0804240F2E733C0E992
:103020000021C0E902530561856100F005FC0546F9
:1030300010B1284606B070BD41F25420C2F2000023
:1030400000F072FC05460028F3D11C2000F036F891
:103050000F2C0DD81C2021460022002500F042F83C
:1030600040F20400C2F200000460284606B070BDC1
:103070000125284606B070BD82B0002043F640010D
:103080000190C4F202014A6842F480424A604A68F0
:1030900002F480420192019A00900868002240F0F8
:1030A0008050086008680F2100F080500090009860
:1030B0006FF0010002B000F015B80000002848BF12
:1030C0007047C1B200F01F00012202FA00F04EF278
:1030D0000012CEF2000242EAD10121F003010860A1
:1030E0007047000010B54EF60C5CCEF2000CDCF818
:1030F0000030C3F3022E8EF00704042C28BF0424F2
:10310000BEF103034FF0FF3E0EFA04F438BF002374
:10311000A14399400EFA03F39A43114300F00F02C2
:1031200000F160430901043A03F564436244002856
:1031300048BF02F10C03197010BD00004EF60C518F
:10314000CEF200010A684FF6FF031A4060F30A222C
:1031500042F0806040F0FD70086070472DE9F0415A
:10316000002800F08B8043F60808C4F202080446E9
:10317000D8F8F8030D4600F00700884207D288F817
:10318000F853D8F8F80300F00700A84276D1206879
:10319000810717D5410705D5D8F8001041F4E05153
:1031A000C8F80010010705D5D8F8001041F46041B7
:1031B000C8F80010D8F80010A26821F0F0011143FF
:1031C000C8F80010C0073FD1D8F8F80300F0070096
:1031D000A84207D988F8F853D8F8F80300F0070098
:1031E000A8424BD12068410707D5D8F80010E26803
:1031F00021F4E0511143C8F80010000708D5D8F8B1
:103200000000216920F4604040EAC100C8F80000D5
:1032100000F09CF8D8F8001047F2CC62C1F303111B
:10322000C0F60102515C40F2900220FA01F140F236
:103230000400C2F200000068C2F200021160FFF751
:10324000BFFE0020BDE8F0816068811E022907D220
:1032500058F8081C89015CBF0120BDE8F08111E02D
:10326000012807D158F8081C89035CBF0120BDE87C
:10327000F08107E058F8081C890703D40120BDE855
:10328000F08100BFD8F8001021F003010843C8F80E
:103290000000FFF75FFE064641F28837D8F80000CD
:1032A000616800F00C00B0EB810F8DD0FFF752FE8B
:1032B000801BB842F2D90320BDE8F0810F220260E2
:1032C00043F60802C4F20202136803F003034360EA
:1032D000136803F0F0038360136803F4E053C360E2
:1032E000D2F800C04FF4E05303EADC030361D2F8E4
:1032F000F80300F0070008607047000040F29000FB
:1033000043F60801C2F20000C4F202010068096835
:1033100047F2DC62C1F38221C0F60102515CC84071
:103320007047000040F2900043F60801C2F200002E
:10333000C4F202010068096847F2DC62C1F342315D
:10334000C0F60102515CC8407047000010B543F65A
:103350000404C4F20204606800F00C0008280BD0DA
:10336000042819BF42F20040C0F2F40047F64000C2
:10337000C0F27D1010BD00BF20682168236849029B
:1033800047F64001C0F27D1100F03F02C3F3881000
:103390005CBF42F20041C0F2F401A1FB0001002336
:1033A000FCF76EFF21680222C1F3014102EB4101EB
:1033B000B0FBF1F010BD00002DE9F04182B0002813
:1033C00068D00446007843F60006C007C4F202063F
:1033D0000BD0B06800F00C00042840F09F803068EB
:1033E000800302D56068002854D0207880071AD561
:1033F000B06810F00C0F09D0B06800F00C0008287D
:1034000040F0A6807068400200F1A280306880071A
:1034100002D5E06801283DD13068216920F0F8002C
:1034200040EAC10030602078000737D42078400798
:103430004CD4A56955B3B06800F00C00082840F0E2
:10344000BB80012D26D07068E16900F480028A42B9
:1034500020D1216A00F03F028A421BD147F6C07199
:10346000626A0140B1EB821F14D1A16A4FF6FF736B
:10347000C903994300F44032A1F580318A4209D151
:10348000E16A00F07060B0EB016F03D1002002B080
:10349000BDE8F081012002B0BDE8F081606900283C
:1034A00040F20000C4F2472076D00121C0F8801E0F
:1034B000FFF750FD054600BF706F8007B6D4FFF7D9
:1034C00049FD401B0228F7D9DDE000BF306C10F049
:1034D00080580AD100200190306C40F08050306458
:1034E000306C00F080500190019847F20007C4F260
:1034F00000073868C00541D4386840F480703860EF
:10350000FFF728FD054600BF3868C00536D4FFF731
:1035100021FD401B0228F7D9B5E000BFB06800F0DC
:103520000C00082803D1706840023FF558AF60686E
:10353000B0F5803F07D0B0F5A02F40F08D80306807
:1035400040F480203060306840F4803030608DE09E
:10355000E068002852D00020C4F247200121016019
:10356000FFF7F8FC054600BF306880073FF554AF11
:10357000FFF7F0FC401B0228F6D984E0A068012880
:1035800005D005284ED1306F40F004003067306F11
:1035900040F0010030674FE00021C0F8801EFFF7C7
:1035A000D9FC0546706F80077FF540AFFFF7D2FC6E
:1035B000401B0228F6D966E00027C4F24727002006
:1035C0003866FFF7C7FC022D05460BD13068800135
:1035D0005ED5FFF7BFFC401B02284FF00300F5D972
:1035E00055E700BF306880017FF550AFFFF7B2FCB0
:1035F000401B02284FF00300F4D948E70020C4F232
:10360000472000210160FFF7A5FC054630688007D0
:103610007FF509AFFFF79EFC401B02284FF0030027
:10362000F4D934E7316F002821F001013167316F9F
:1036300021F0040131674DD0FFF78CFC054641F2C3
:10364000883700BF306F800756D4FFF783FC401BDC
:10365000B842F7D917E000BF3168002821F4803163
:103660003160316821F4802131604FD0FFF772FC66
:10367000054600BF306880033FF5B7AEFFF76AFC30
:10368000401B6428F6D9032002B0BDE8F08100BFDA
:1036900004F11C052FCD084340EA8210D9034FF6F0
:1036A000FF729143A1F5803140EA056008437060E4
:1036B00001203866FFF74EFC044600BF30688001E9
:1036C0003FF5E4AEFFF746FC001B02284FF0030075
:1036D000F4D9DCE6FFF73EFC054641F2883700BF2F
:1036E000306F800708D5FFF735FC401BB8424FF01C
:1036F0000300F5D9CBE600BFB8F1000F7FF499AE17
:10370000306C20F08050306493E600BFFFF722FC5D
:10371000054600BF306880037FF567AEFFF71AFCEF
:10372000401B64284FF00300F4D9B0E67047000056
:1037300070470000B0B590F83C20012A04BF022079
:10374000B0BD01F108053CCDD1E900CE23F47C5396
:1037500022F470521A432EF4F0431A432CF4E0433F
:103760001A4324F4C0431A432A43C96922F480420D
:10377000036811435964002180F83C100846B0BD2D
:1037800010B590F83C20012A4FF0020251D080F889
:103790003D200268D2F804E0D2F808C00C682EF090
:1037A0007003234341F2FF74C4F20004A242536049
:1037B0000EDC40F2FF73C4F200039A4216DCB2F151
:1037C000804F2BD040F20043C4F2000324E000BF3E
:1037D00040F2FF33C4F201039A4213DC41F60003C6
:1037E000C4F200039A4219D0002313E040F600030C
:1037F000C4F200039A4211D040F60043C4F2000321
:103800000AE000BF44F20003C4F201039A4205D06B
:1038100040F20043C4F201039A4204D149682CF0FB
:103820008003194391600121002280F83D1080F847
:103830003C20104610BD0000002804BF0120704746
:1038400010B5044690F83D0028B9002084F83C00EB
:10385000204600F01FF8022084F83D002068211D5A
:1038600003F07EFE012084F8460084F83E0084F8D0
:103870003F0084F8400084F8410084F8420084F856
:10388000430084F8440084F8450084F83D0000209B
:1038900010BD000083B0006840F20041C4F2000196
:1038A00088421BD044F60001C4F20101884229D0AD
:1038B0000021C4F20101884233D10020029043F676
:1038C0004400C4F20200016841F001010160006897
:1038D00000F001000290029803B0704700200190B0
:1038E00043F64400C4F2020050F8041C41F0020107
:1038F00040F8041C50F8040C00F0020001900198FC
:1039000003B070470020009043F64400C4F2020068
:10391000016841F480210160006800F4802000907B
:10392000009803B07047000090F83D1001291CBFBB
:1039300001207047022180F83D10006841F2FF72BB
:10394000C168C4F20002904241F00101C1600DDC87
:1039500040F2FF71C4F20001884215DCB0F1804FE3
:103960002AD040F20041C4F2000123E040F2FF31CE
:10397000C4F20101884213DC41F60001C4F20001E7
:10398000884219D0002113E040F60001C4F2000182
:10399000884211D040F60041C4F200010AE000BFA5
:1039A00044F20001C4F20101884205D040F2004116
:1039B000C4F20101884206D1816801F0070106299D
:1039C00004BF00207047016841F001010160002040
:1039D0007047000080B590F83C20012A4FF00202A9
:1039E00000F0C28080F83D20D0F800C04FF677721A
:1039F000DCF8083023EA0202CCF808200B684F2BD1
:103A000028DC1F2B44DD202B45D0302B43D0402B0E
:103A100040F0AC80D1F804E0C968DCF82030DCF874
:103A2000202022F00102CCF82020DCF8182022F01F
:103A3000F00242EA011123F00A0242EA0E02CCF837
:103A40001810CCF82020DCF8081041F0470121F0D4
:103A5000300180E06F2B27DDB3F5005F48D0B3F570
:103A6000805F7AD0702B40F08180D1E901E3C96892
:103A7000DCF8082043EA0E0322F47F4243EA0121E6
:103A80001143CCF80810DCF8081041F0770162E02F
:103A90000BB1102B6AD1DCF8081021F0700119432A
:103AA00041F0070157E000BF502B35D0602B5DD1AE
:103AB000D1F804E0C968DCF8203023F01003CCF81A
:103AC0002030DCF81830DCF8202023F4704322F09A
:103AD000A00243EA013142EA0E12CCF81810CCF8E9
:103AE0002020DCF8081041F0670121F0100132E0DD
:103AF000D1E901E3C968DCF8082043EA0E0322F4A7
:103B00007F4243EA01211143CCF80810DCF8081089
:103B100041F480411FE000BFD1F804E0C968DCF83F
:103B20002030DCF8202022F00102CCF82020DCF844
:103B3000182022F0F00242EA011123F00A0242EAC0
:103B40000E02CCF81810CCF82020DCF8081041F058
:103B5000570121F02001CCF808100022012180F843
:103B60003D10002180F83C10104680BD0122F5E791
:103B70007047000010B5016804460869800744BF1B
:103B8000C8685FEA807039D40869400744BFC868D4
:103B90005FEA40703ED40869000744BFC8685FEA26
:103BA000007045D40869C00644BFC8685FEAC060B9
:103BB0004AD40869C0071CBFC8685FEAC07051D109
:103BC0000869000644BFC8685FEA006052D408690B
:103BD000400644BFC8685FEA406053D40869800665
:103BE00046BFC8685FEA806010BD6FF020022046C3
:103BF0000A61BDE81040FFF79BBD00BF6FF00200F7
:103C00000861012020778869800743D02046FFF7AC
:103C1000AFFF45E06FF0040008610220207788695B
:103C200010F4407F40D02046FFF7A2FF42E000BFE3
:103C30006FF00800086104202077C86980073DD034
:103C40002046FFF795FF3FE06FF010000861082065
:103C50002077C86910F4407F3AD02046FFF788FFEC
:103C60003CE000BF6FF001000861204600F00AFA56
:103C70002168A5E76FF0800008612046FFF756FD38
:103C80002168A4E76FF040000861204600F002FAC6
:103C90002168A3E7204600F025F8204600F066F9E9
:103CA0002168002020776FE7204600F01BF82046AF
:103CB00000F05CF92168002020776CE7204600F0D6
:103CC00011F8204600F052F921680020207769E7BA
:103CD000204600F007F8204600F048F9216800204F
:103CE000207766E7704700002DE9F04390F83C30FC
:103CF000012B04BF0220BDE8F0834FEAB202032A81
:103D000000F2FC80DFE802F0023E7EBE036840F273
:103D100000471A6A43F4806522F001021A621C6AA5
:103D20001A46D3F804E052F818CF8E6824F0020443
:103D3000C4F20107BD4244EA060405D1CE6824F06E
:103D40000C0426F0040634430E68BD4207D1D1E9C5
:103D500005572EF4407E45EA0E0545EA070E2CF085
:103D600073073743C3F804E09F614F6809695F63D5
:103D70001C629F6947F008079F619F6927F004074D
:103D80009F61B1E0036840F200481A6A43F480651D
:103D900022F010021A621C6A1A46D3F804C052F8C4
:103DA00018EF8F6824F02004C4F20108454544EA66
:103DB000071407D1CF686FF0400624F0C00406EA6C
:103DC00007163443D1F80090454506D1D1E9055690
:103DD0002CF440672E4347EA860C2EF4E64747EA68
:103DE0000927C3F804C09F614F6809699F631C627B
:103DF0009F6947F400679F619F6927F480679F610F
:103E000071E000BF036840F200481A6A43F480651D
:103E100022F480721A621C6A1A46D3F804C052F85F
:103E20001CEF8F6824F40074C4F20108454544EA8D
:103E3000072408D1CF6840F2FF463F0224F44064D3
:103E400027EA06063443D1F80090454506D1D1E96A
:103E500005562CF440572E4347EA061C2EF07307F4
:103E600047EA0907C3F804C0DF614F680969DF63E7
:103E70001C62DF6947F00807DF61DF6927F004078C
:103E8000DF6131E0036840F200451A6A43F480675D
:103E900022F480521A621A46D3F820C05C6852F8A5
:103EA0001CEFD1F800808E68C4F20105AF4204D146
:103EB0004D6924F4804444EA85142CF4005747EA01
:103EC00006372EF4E64646EA08265C60DE614E6858
:103ED00009691E641F62DF6947F40067DF61DF69FB
:103EE00027F48067DF61090213681943116000211C
:103EF000002280F83C200846BDE8F0830121002222
:103F000080F83C200846BDE8F0830000002804BF8C
:103F10000120704710B5044690F83D0028B90020F4
:103F200084F83C00204600F01FF8022084F83D0091
:103F30002068211D03F014FB012084F8460084F85A
:103F40003E0084F83F0084F8400084F8410084F883
:103F5000420084F8430084F8440084F8450084F863
:103F60003D00002010BD00007047000070470000B9
:103F700041B1082910D0042914BF00F1410200F119
:103F80003F020BE090F83E20012A1CBF0120704741
:103F9000022280F83E2013E000F140021278012A4C
:103FA0001CBF012070470222082907D0042914BF32
:103FB00080F8412080F83F2002E000BF80F84020D8
:103FC000006801F01F010122036A02FA01F123EAED
:103FD00001020262026A114341F2FF72C4F200025E
:103FE000904201620CDC40F2FF71C4F20001884291
:103FF00014DCB0F1804F37D040F2004116E000BF32
:1040000040F2FF31C4F20101884215DC41F60001A3
:10401000C4F20001884227D0002115E040F60001DB
:10402000C4F2000188421FD040F60041C4F20001F2
:10403000884219D01FE000BF44F20001C4F2010120
:10404000884211D040F20041C4F20101884212D1ED
:10405000416C40F2004340F48062C4F2010341F439
:1040600000419A42416406D1816801F007010629A6
:1040700004BF00207047016841F001010160002089
:10408000704700000068B0F1804F18BF7047FEF71E
:104090006DBF0000704700007047000070470000CF
:1040A000B0B582B0044600680168C368426901F097
:1040B0002F05202D03F0200506D12DB1204602B09A
:1040C000BDE8B04003F026BC5FEA017C1EBF02F0F1
:1040D000010E03F4907212EB0E0253D1226B012AEF
:1040E00005D111F0100218BF13F0100236D10A06E4
:1040F00022D513F080021FD094F83D1021293FD122
:10410000A168B1F5805F03D12169002900F07282B6
:10411000216A4A1C226209784160E18C01390A0453
:10412000E1842DD1C16821F08001C160C16841F0F6
:104130004001C16002B0B0BD490621D513F0400175
:104140001ED0C16821F04001C1602021204684F8C2
:104150003D1002B0BDE8B04000F09CBD00210191CF
:10416000016801914168019101994069400613D4A9
:10417000A08DE18DE28D002A18BF884240F0BE81FB
:1041800002B0B0BDCA0718BF13F4807240F0BA8005
:104190004A0700F1BD80C2E0A16B0868426893B293
:1041A000002BEDD0A08D8342EAD2E285C969B1F53A
:1041B000807F00F09D80206850E8030F216820F484
:1041C000807041E80302DAB1206850E8030F2168EB
:1041D00020F4807041E8030292B1206850E8030F98
:1041E000216820F4807041E803024AB1206850E859
:1041F000030F216820F4807041E80302002ADAD11D
:10420000206850E8050F216820F0010041E8050210
:10421000DAB1206850E8050F216820F0010041E87C
:10422000050292B1206850E8050F216820F00100D6
:1042300041E805024AB1206850E8050F216820F0E6
:10424000010041E80502002ADAD1206850E8050F94
:10425000216820F0400041E80502DAB1206850E80A
:10426000050F216820F0400041E8050292B1206866
:1042700050E8050F216820F0400041E805024AB1EE
:10428000206850E8050F216820F0400041E8050251
:10429000002ADAD1202084F83E0000202063206824
:1042A00050E8030F216820F0100041E80302DAB162
:1042B000206850E8030F216820F0100041E8030255
:1042C00092B1206850E8030F216820F0100041E807
:1042D00003024AB1206850E8030F216820F0100063
:1042E00041E80302002ADAD1A06BFEF709FBA08D9A
:1042F000E18D401A81B2204602B0BDE8B040FFF720
:10430000CBBE00BF226C42F0010222644A0706D5F0
:10431000BEF1000F03D0226C42F0020222648A0731
:1043200006D5BEF1000F03D0226C42F004022264D5
:10433000BCF1000F09D545EA0E02B2FA82F2520929
:1043400003D1226C42F008022264226C002A3FF45E
:1043500017AF11F0200118BF002D03D0204603F045
:10436000D9FA20684069216C00F0400001F0080192
:10437000401800F0B58000BF206850E8030F2168A6
:1043800020F4907041E80302BAB3206850E8030FAC
:10439000216820F4907041E8030272B3206850E86D
:1043A000030F216820F4907041E803022AB32068CB
:1043B00050E8030F216820F4907041E80302002ABE
:1043C000DAD11AE0206850E8050F216820F00100DA
:1043D00041E80502DAB1206850E8050F216820F0B5
:1043E000010041E8050292B1206850E8050F2168FC
:1043F00020F0010041E805024AB1206850E8050FAD
:10440000216820F0010041E80502002ADAD1206B82
:10441000012824D1206850E8030F216820F0100003
:1044200041E80302DAB1206850E8030F216820F068
:10443000100041E8030292B1206850E8030F2168A0
:1044400020F0100041E803024AB1206850E8030F51
:10445000216820F0100041E80302002ADAD1202070
:1044600084F83E00002020632068406940063FD564
:10447000206850E8050F216820F0400041E805025F
:10448000DAB1206850E8050F216820F0400041E8CB
:10449000050292B1206850E8050F216820F0400025
:1044A00041E805024AB1206850E8050F216820F074
:1044B000400041E80502002ADAD1A06BC0B147F202
:1044C000D561C0F600010165FEF762FA00283FF4ED
:1044D00057AEA06B016D02B0BDE8B040084700BF09
:1044E0002046FFF7DBFD0020206402B0B0BD00BF16
:1044F000204602B0BDE8B040FFF7D0BD401A2168A9
:1045000051E8031F226821F4907142E80313DBB1E4
:10451000216851E8031F226821F4907142E80313D7
:1045200093B1216851E8031F226821F4907142E899
:1045300003134BB1216851E8031F226821F49071E5
:1045400042E80313002BDAD1216851E8051F2268E5
:1045500021F0010142E80513DBB1216851E8051F94
:10456000226821F0010142E8051393B1216851E866
:10457000051F226821F0010142E805134BB12168B3
:1045800051E8051F226821F0010142E80513002BC4
:10459000DAD1202184F83E1000212163216851E8FE
:1045A000031F226821F0100142E80313002B3FF49F
:1045B000A1AE216851E8031F226821F0100142E8F2
:1045C0000313002B3FF496AE216851E8031F2268C5
:1045D00021F0100142E80313002B3FF48BAE216859
:1045E00051E8031F226821F0100142E80313002B59
:1045F000D4D17FE6216A31F8022B6FF35F2242604B
:1046000021628AE5002804BF0120704710B50446E6
:1046100090F83D0028B9002084F83C00204600F0C6
:1046200021F8242084F83D002068C16821F400515D
:10463000C160204603F0EEF92068016921F4904141
:104640000161416921F02A014161C16841F40051D1
:10465000C16000202021206484F83D1084F83E10C1
:1046600010BD00002DE9F04F87B00446006844F605
:10467000FF71C4F2000188424FF000010691CDE9BC
:104680000411CDE902115FDC44F20041C4F20001E3
:10469000884200F0DB8044F60001C4F20001884249
:1046A00000F0228144F60041C4F20001884240F04B
:1046B0008782002643F630000196C4F202000169A9
:1046C00041F400210161016901F400210191019986
:1046D0000196016841F0010101600068022100F0CB
:1046E0000100019001980320029005900820069097
:1046F0000020CDE90316C4F2020002A9FEF750FB28
:1047000046F21000C4F2020040F6F8553030C2F212
:1047100000054FF000614FF480624FF4807385E82C
:1047200043002846C5E90362C5E90566C5E90736C1
:104730006E62FEF71FFA002818BFFDF7CFFBA563D6
:1047400005F13800342532E245F20001C4F20001DF
:10475000884200F0398141F20001C4F2010188422F
:1047600000F0BA8141F20041C4F20101884240F0F8
:104770002782002643F630000196C4F20200416908
:1047800046F2100841F0200141614169C4F202087B
:1047900001F02001019101990196016841F00401A5
:1047A0000160006802A900F0040001900198C02097
:1047B00002900220CDE90306032005900820069010
:1047C0000020C4F2020000F50060FEF7E9FA41F2B1
:1047D000F80508F58360C2F200054FF0206B4FF436
:1047E000806A4FF48079C5E9000B4FF440372846C2
:1047F000C5E90266C5E904A6C5E90669C5E9087602
:10480000FEF7B8F9002818BFFDF768FBA563AC6395
:1048100041F2581508F59260C2F200054021C5E941
:10482000000B05F1080080E842042846C5E905664A
:10483000C5E907976E62FEF79DF9002818BFFDF7DE
:104840004DFB656305F138004725B0E1002643F6CE
:1048500030000196C4F20200016941F400310161A7
:10486000016901F40031019101990196016841F05B
:1048700001010160006802A900F0010001900198A7
:104880000C2002900220CDE90306032005900720AA
:1048900006900020C4F20200FEF782FA46F21000F1
:1048A000C4F2020040F6D8757830C2F200054FF02D
:1048B000006185E843004FF440304FF480624FF4CC
:1048C0008073C5E908062846C5E90362C5E905669F
:1048D000EB61FEF74FF9002818BFFDF7FFFAA5635B
:1048E00005F13800262562E1002643F630000196E6
:1048F000C4F20200016946F2100841F4802101610E
:104900000169C4F2020801F4802101910199019624
:10491000016841F008010160006802A900F0080088
:10492000019001984FF4407002900220CDE90306F7
:1049300003200590072006900020C4F2020000F535
:104940004060FEF72DFA41F2980508F14800C2F2E6
:1049500000054FF0006B4021C5E9000B05F1080090
:104960004FF4806A4FF4807980E842044FF40037B6
:104970002846C5E90566C5F81C90C5E90876FEF726
:10498000F9F8002818BFFDF7A9FA6563AC6341F296
:10499000380508F11800C2F20005C5E9000B2846E9
:1049A000C5E90266C5E904A6C5E90669C5E9087650
:1049B000FEF7E0F8002818BFFDF790FAA56305F1AF
:1049C00038002725F3E000BF002643F630000196AB
:1049D000C4F202000169002741F4801101610169FC
:1049E000C4F2020701F48011019101990196016856
:1049F00002AD41F004010160016846F2100801F0C7
:104A0000040101910199019601684FF0020941F0FA
:104A10000801016000684FF0030A00F008000190EF
:104A200001984FF4805002904FF0080B07F500609A
:104A30002946C4F20208CDE90396CDF814A0CDF8BA
:104A400018B0FEF7ADF90420CDE9020904A880E80A
:104A5000400C07F540602946FEF7A2F940F658657C
:104A6000C2F200054FF0006B4FF4806A4FF480797A
:104A70004FF440372846C5E9008BC5E90266C5E911
:104A800004A6C5E90669C5E90876FEF773F80028AB
:104A900018BFFDF723FAA563AC6340F6B86508F1CB
:104AA000A800C2F200054021C5E9000B05F108008D
:104AB00080E842042846C5E90566C5E907976E62A5
:104AC000FEF758F8002818BFFDF708FA656305F1EE
:104AD000380035256BE000BF002643F63000019614
:104AE000C4F20200416946F2100841F01001416130
:104AF0004169C4F2020801F0100101910199019687
:104B0000016841F001010160006802A900F00100A4
:104B1000019001984FF4C06002900220CDE9030695
:104B200003200590072006900020C4F20200FEF743
:104B300037F940F6187508F58660C2F200054FF0A7
:104B4000006B4FF4806A4FF48079C5E9000B4FF495
:104B500000372846C5E90266C5E904A6C5E9066925
:104B6000C5E90876FEF706F8002818BFFDF7B6F984
:104B7000A563AC6340F6787508F59560C2F2000550
:104B80004021C5E9000B05F1080080E842042846F1
:104B9000C5E90566C5E907976E62FDF7EBFF0028DA
:104BA00018BFFDF79BF9656305F138002525046002
:104BB000284605210022FEF795FA2846FEF77EFAE0
:104BC00007B0BDE8F08F00007047000070B50446E4
:104BD00090F83D0020280BD100294FF0010055D05E
:104BE000002A134608BF70BD94F83C00012801D18B
:104BF000022070BD012084F83C00002621202162A3
:104C0000A384E384266484F83D002268606B47F641
:104C10005D0C47F60D1E47F2E165C0F6000CC0F6CC
:104C2000000EC0F600050432C0E90FCEC0E91356ED
:104C3000FEF752F820686FF04001016084F83C6094
:104C4000206850E8050F216840F0800041E8050227
:104C5000F2B1206850E8050F216840F0800041E87B
:104C60000502AAB1206850E8050F216840F08000D5
:104C700041E8050262B1206850E8050F216840F064
:104C8000800041E80502002ADAD1002070BD00BF93
:104C9000002070BD704700007047000001F03EFB2F
:104CA0001420FEF769F8012080F3138803F044FC18
:104CB0002DE9F04F83B040F20042C4F202021168C5
:104CC00048F2B42521F04041116011680190C4F20E
:104CD000402500201160286002204FF0000B0AF0F0
:104CE0009BFC0120286055F8780C0127002818BF8C
:104CF0000120029001200AF08FFC0220C5F800B0CC
:104D00000AF08AFC2F6055F8786C01200AF084FCC8
:104D10000220C5F800B00AF07FFC2F6055F8784CEF
:104D20000120002C18BF01240AF076FC0220C5F8EF
:104D300000B00AF071FC2F6055F8788C01200AF061
:104D40006BFC0220C5F800B00AF066FC2F6055F835
:104D5000789C0120B9F1000F18BF4FF001090AF04B
:104D60005BFC0220C5F800B00AF056FC2F6055F835
:104D700078AC01200AF050FC0220C5F800B00AF01F
:104D80004BFC2F6055F878BC01200127BBF1000FC8
:104D900018BF4FF0010B0AF03FFC002028600220F2
:104DA0000AF03AFC2F6055F8787C01200AF034FCB8
:104DB000002040F200422860C4F20202106801990B
:104DC00020F0404010601068B1FA81F140F080405E
:104DD000490910600220A9600AF01EFC0120286029
:104DE00002200AF019FC002E18BF01260298B8F123
:104DF000000F46EA40004FEA800040EA440018BF36
:104E00004FF001084044800040EA4900BAF1000F29
:104E100018BF4FF0010A5044800040EA4B00002FB9
:104E200018BF012738440021C0B2296003B0BDE893
:104E3000F08F0000F0B581B040F20041C4F20201F1
:104E40000A68044622F040420A600A6848F2B42523
:104E500042F080400860C4F240250026E0092E6040
:104E6000A86002200AF0D8FB012702202F600AF078
:104E7000D3FB02202E600AF0CFFBC4F38010A860A1
:104E800002200AF0C9FB02202F600AF0C5FB0220B5
:104E90002E600AF0C1FBC4F34010A86002200AF0A3
:104EA000BBFB02202F600AF0B7FB02202E600AF045
:104EB000B3FBC4F30010A86002200AF0ADFB02208F
:104EC0002F600AF0A9FB02202E600AF0A5FBC4F3B4
:104ED000C000A86002200AF09FFB02202F600AF0A9
:104EE0009BFB02202E600AF097FBC4F38000A860B1
:104EF00002200AF091FB02202F600AF08DFB0220B5
:104F00002E600AF089FBC4F34000A86002200AF07A
:104F100083FB02202F600AF07FFB02202E600AF044
:104F20007BFB04F00100A86002200AF075FB022060
:104F30002F600AF071FB02202E6001B0BDE8F04046
:104F40000AF06ABBB0B540F20040C4F2020001684A
:104F500048F2B42421F0404101600168C4F24024C9
:104F600041F0804101600120A060206004200AF02F
:104F700053FB00250420A5600AF04EFB2560B0BD60
:104F800010B540F20040C4F20200016848F2B424B7
:104F900021F0404101600168C4F2402441F08041A9
:104FA000016000202060A06004200AF035FB012190
:104FB00021600420A160BDE810400AF02DBB000074
:104FC00070B540F20044C4F20204206848F23C2567
:104FD00020F0404020602068C4F240252060012677
:104FE0000120C5F880600AF017FB0120AE670AF0C7
:104FF00013FB0020296859B1296849B1296839B1E2
:10500000F72809D8296819B1043029680029F3D193
:1050100000242046AC6770BD206820F0404020602E
:10502000206840F0804020600020A867C5F880001C
:1050300004200AF0F1FA01240420AC67C5F880408E
:105040000AF0EAFA204670BDB7EE002A32EE412A95
:1050500022EE202A21EE000A30EE020A70470000FC
:105060000AF0A6FE02200BF0EDFCF9E780B58AB04D
:105070000188428809BA090CADF8001011BA4289BA
:105080008089090C00BA000CADF80600F1200390ED
:105090000020ADF8021011BACDE905000820090C76
:1050A000079040F6AC50ADF80410C2F2000003A91E
:1050B0006A4609ABFDF710F80AB080BD10B540F2A2
:1050C0001024C2F2000420680CF0B4FB206803F046
:1050D00075FA206803F0A4FDD4F800C09CF80C1009
:1050E0009CF80B20881EB0FA80F0531A4FEA50103B
:1050F00018BF012313EA000E40F21803C2F20003A6
:1051000009D1481EB0FA80F08A424FEA501207D007
:10511000012905D1013318788EF001024042187040
:1051200060688078012815D19CF8090003282BD0ED
:10513000022835D0012826D1002A00F0CF809CF823
:105140001200012800F0C280032840F0C780002030
:10515000BDE000BF40F6DA00C2F20000002141725B
:10516000C17440F20450C2F20000022280F82A20EA
:1051700040F23050C2F2000080F82A2040F63E3063
:10518000C2F20000417010BD032943D0022961D052
:105190000129F8D140F63E30C2F200000621EEE0CF
:1051A00040F20450C2F20000022280F82A2040F2AD
:1051B0003050C2F20000032980F82A206AD0022968
:1051C00008D00129DFD140F63E30C2F200000421B0
:1051D000417010BD9CF8121040F63E30C2F2000043
:1051E00002220129427000F00B810329CBD100215A
:1051F000417001F093F8002000210022002300F00C
:1052000011FF1420FDF7B8FD012080F3138803F08F
:10521000BFF900BFBCF8100040F63E314FF66C53AA
:10522000C2F20001062298424A7000F0CD80B0F52B
:10523000257FA8D140F20450C2F20000012180F87D
:105240002A1040F23050C2F20000022180F82A10E9
:1052500010BD00BFBCF8100040F63E314FF66C5355
:10526000C2F200010A2298424A7000F0AD80B0F507
:10527000257F18BF10BD40F20450C2F20000022189
:1052800080F82A1040F23050C2F20000012180F86C
:105290002A1010BD40F6D800C2F2000001780322A7
:1052A000002918BF0922BCF8101040F63E33C2F2A4
:1052B0000003B1F5257F5A7000F094804FF66C52D0
:1052C00091427FF460AF0021017010BD042040F2D4
:1052D0002402C2F20002526882F82900012923D078
:1052E000022947D003297FF44EAF40F20830C2F2C2
:1052F0000000006840F2075240780723C1000428EC
:1053000040F2F020C2F20000C0F60A2238BF22FAB2
:1053100001F3007840F63E31C2F20001012808BFD7
:1053200007234B7050E000BF40F22400C2F200009F
:10533000406890F82900042840D140F20830C2F2B9
:105340000000006840F204514078C2F200010322DC
:1053500081F82A20811E022940F23051C2F2000158
:1053600081F82A2042D240F63E30C2F200000A21E3
:10537000417010BD40F63E30C2F200000521417080
:105380009CF8121040F2045040F23052C2F2000079
:105390000023C2F20002012980F82A3082F82A3064
:1053A00004D003297FF4EFAE006800E010680068C5
:1053B0004169A1F51041416110BD00BF40F63E308A
:1053C000C2F200000821417040F20450C2F2000015
:1053D000022180F82A1040F23050C2F2000080F81A
:1053E0002A1010BD0121017010BD00BF012840F638
:1053F0003E30C2F2000014BF07210521417010BDEC
:105400000021417000F08AFF0020002100220023CB
:1054100000F008FE1420FDF7AFFC012080F3138894
:1054200003F0B6F8006840F62A320068C2F20002C3
:10543000C08A1288081A00EBC20000B27047000050
:10544000F0B581B014460D460646FFF77BFD40F2ED
:105450008C07C2F2000738784000C0B2FFF7EAFCC0
:10546000FFF7AEFD3046FFF7E5FCFFF7A9FDFFF7BC
:1054700069FD387840000130C0B2FFF7DBFCFFF770
:105480009FFD4CB1013D00260120FFF711FC0136C4
:10549000A64205F8010FF7D301B0BDE8F040FFF7D1
:1054A0006FBD000010B540F6845046F20041C2F2D4
:1054B0000000C4F200010322002380E80E0000F186
:1054C0000C014FF4002C4FF4401E4FF4807481E81F
:1054D000085040F2011184618183FDF78FF80028A4
:1054E00008BF10BDBDE81040FCF7F8BC10B540F691
:1054F000AC5046F60001C2F20000C4F200010322E3
:10550000002380E80E0000F10C014FF4002C4FF452
:10551000401E4FF4807481E8085040F2011184610C
:105520008183FDF76BF8002808BF10BDBDE810406F
:10553000FCF7D4BC80B582B0002043F63001019066
:10554000C4F202010A6842F400120A600A6802F416
:1055500000120192019A00900868002240F4800035
:1055600008600868052100F48000009000980B2076
:10557000FDF7B8FD0B20FDF7A1FD0C200521002251
:10558000FDF7B0FD0C20FDF799FD0D20052100224F
:10559000FDF7A8FD0D20FDF791FD0E20052100224D
:1055A000FDF7A0FD0E20FDF789FD1020052100224A
:1055B000FDF798FD1020FDF781FD2F200521002229
:1055C000FDF790FD2F20FDF779FD39200521002200
:1055D000FDF788FD3920FDF771FD3A2005210022F5
:1055E000FDF780FD3A20FDF769FD452005210022E9
:1055F000FDF778FD4520FDF761FD462005210022DD
:10560000FDF770FD462002B0BDE88040FDF756BDB5
:10561000F0B5BFB047F2B060C0F6010090E81E5090
:10562000806938AD85E81E503E9038A800210BF007
:1056300017FA40F24817C2F20007386047F2786064
:10564000C0F6010090E87E0080690DF1C40C8CE882
:105650007E00379031A800210BF002FA786047F203
:105660005C60C0F6010090E84E00D0E90454806907
:105670000DF1A80C8CE84E0030902AA80021CDE94D
:105680002E540BF0EDF9B86047F29460C0F60100BB
:1056900090E84E00D0E9045480690DF18C0C8CE840
:1056A0004E00299023A80021CDE927540BF0D8F90A
:1056B0002E49F8602DA0061D1C914ECED0E9055054
:1056C0000DF1740C8CE84E00CDE921501CA800218E
:1056D0000BF0C6F92C4938612BA0061D15914ECE52
:1056E000D0E905500DF1580C8CE84E00CDE91A5068
:1056F00015A800210BF0B4F92A49786129A0061DEC
:105700000E914ECED0E905500DF13C0C8CE84E00C8
:10571000CDE913500EA800210BF0A2F92849B86179
:1057200027A0061D07914ECED0E905500DF1200CA3
:105730008CE84E00CDE90C5007A800210BF090F941
:105740002649F86125A0061D00914ECED0E90550EE
:105750000DF1040C8CE84E00CDE90550684600219F
:105760000BF07EF938623FB0F0BD00BF88A00108A1
:105770004D150008FDFF00000000000000020000C1
:10578000000000000000000070A00108E11E0008F9
:10579000FDFF00000000000000010000000000000C
:1057A000000000007CA0010811830008FDFF00003C
:1057B00000000000000200000000000000000000E7
:1057C00095A0010845740008FDFF000000000000DE
:1057D0000001000000000000000000005BA00108C4
:1057E000AD6F0008FDFF0000000000008000000019
:1057F00000000000000000002DE9F04387B0002702
:1058000043F6300006970197C4F20200016840F2A7
:10581000004441F0800101600168C4F2020401F01B
:1058200080010191019901970168012241F0010174
:10583000016001684FF0010801F001010191019937
:105840000197016841F010010160016801F0100149
:10585000019101990197016841F00201016001681D
:1058600001F00201019101990197016841F00801DD
:105870000160016801F00801019101990197016837
:1058800041F00401016000684FF4604100F0040041
:10589000019001982046FDF757FB04F50065284666
:1058A000382100224FF03809FDF74EFB20464FF417
:1058B000C0710022FDF748FB4FF42040CDE90208FB
:1058C000032002AE0590204631460497FDF768FAA2
:1058D0004FF48040CDE9020820463146CDE90487E7
:1058E000FDF75EFA28463146CDE90298CDE9047706
:1058F000FDF756FA802002901120CDE903072046DB
:1059000031460597FDF74CFA4FF48070CDE9020857
:1059100020463146CDE90477FDF742FA07B0BDE8ED
:10592000F083000070B58EB044F6000541F20C2003
:10593000C4F201050021C2F20000A7224FF4FA735D
:10594000CDE90611CDE90411C0E90052C0E9021306
:1059500001618161FDF770FF002818BFFCF7BEFAF6
:1059600041F20C20C2F20000FEF7D0FA002818BF66
:10597000FCF7B4FA41F20C246020C2F2000401905A
:10598000002601A920460022CDE902660596FEF711
:10599000ABF9002818BFFCF7A1FA206840F20041DB
:1059A000C4F20001884209961CD0A84230D00021E0
:1059B000C4F20101884249D10020089043F630002A
:1059C000C4F20200016841F0100101600068012189
:1059D00000F01000089008984FF40060099005F559
:1059E00048402AE00020089043F63000C4F202004C
:1059F000016841F0010101600068022100F001002E
:105A000008900898C020099005F5384015E000BFBF
:105A10000020089043F63000C4F20200016841F013
:105A2000020101600068032100F00200089008985C
:105A30004FF40070099005F53C4002220A920022C2
:105A40000D9109A9CDE90B22FDF7AAF90EB070BDA1
:105A500070B59CB0002541F2C410C4F201050021CC
:105A6000C2F2000040F61F5240F2E7331591CDE933
:105A700013111191CDE90F11CDE90D11CDE90B11E4
:105A8000CDE90911CDE90711CDE90511CDE90311E2
:105A9000CDE90111C0E90052C0E90213C0E90411C7
:105AA0008161FDF7C9FE002818BFFCF717FA4FF413
:105AB0008050129041F2C410C2F2000012A9FDF70A
:105AC00089FF002818BFFCF709FA41F2C410C2F29E
:105AD0000000FEF71BFA002818BFFCF7FFF941F29F
